:020000040000FA
:100000000C9462000C948A000C948A000C948A0070
:100010000C948A000C948A000C948A000C948A0038
:100020000C948A000C948A000C948A000C948A0028
:100030000C948A000C948A000C948A000C948A0018
:100040000C9438030C948A000C948A000C948A0057
:100050000C948A000C948A000C948A000C948A00F8
:100060000C948A000C948A000000000024002700F1
:100070002A0000000000250028002B0000000000DE
:1000800023002600290004040404040404040202DA
:100090000202020203030303030301020408102007
:1000A0004080010204081020010204081020000012
:1000B0000008000201000003040700000000000027
:1000C0000000890511241FBECFEFD8E0DEBFCDBFF1
:1000D00011E0A0E0B1E0E4E0FEE002C005900D9286
:1000E000A037B107D9F721E0A0E7B1E001C01D9228
:1000F000A139B207E1F710E0C2E6D0E004C02197D1
:10010000FE010E94FA06C136D107C9F70E94C70353
:100110000C9400070C940000833081F028F48130A7
:1001200099F08230A9F008958730A9F08830C9F09D
:100130008430B1F4809180008F7D03C08091800075
:100140008F7780938000089584B58F7784BD08955C
:1001500084B58F7DFBCF8091B0008F778093B00006
:1001600008958091B0008F7DF9CFCF93DF93282F32
:1001700030E0F901E255FF4F8491F901E656FF4F57
:10018000D491F901EA57FF4FC491CC23A1F081111A
:100190000E948C00EC2FF0E0EE0FFF1FE458FF4FA1
:1001A000A591B491EC91ED2381E090E009F480E019
:1001B000DF91CF91089580E090E0FACF1F93CF9325
:1001C000DF93282F30E0F901E255FF4F8491F901C8
:1001D000E656FF4FD491F901EA57FF4FC491CC2363
:1001E000A9F0162F81110E948C00EC2FF0E0EE0F89
:1001F000FF1FEE58FF4FA591B4918FB7F894EC9183
:10020000111108C0D095DE23DC938FBFDF91CF9111
:100210001F910895DE2BF8CFCF93DF9390E0FC0180
:10022000E656FF4F24918A579F4FFC018491882303
:10023000D1F090E0880F991FFC01E859FF4FA5917C
:10024000B491FC01EE58FF4FC591D49161110EC0DD
:100250009FB7F8948C91E22FE0958E238C932881A0
:10026000E223E8839FBFDF91CF9108958FB7F89481
:10027000EC91E22BEC938FBFF6CF3FB7F8948091CF
:10028000750190917601A0917701B091780126B522
:10029000A89B05C02F3F19F00196A11DB11D3FBFBE
:1002A000BA2FA92F982F8827BC01CD01620F711D8D
:1002B000811D911D42E0660F771F881F991F4A9587
:1002C000D1F708958F929F92AF92BF92CF92DF9213
:1002D000EF92FF924B015C010E943D016B017C019A
:1002E0000E943D016C197D098E099F09683E73408B
:1002F00081059105A8F321E0821A9108A108B108AF
:1003000088EEC80E83E0D81EE11CF11C8114910414
:10031000A104B10429F7FF90EF90DF90CF90BF9038
:10032000AF909F908F900895AF92BF92CF92DF923F
:10033000EF92FF920F931F93CF93DF936C017B019A
:100340008B01040F151FEB015E01AE18BF08C0172B
:10035000D10759F06991D601ED91FC910190F0819E
:10036000E02DC6010995892B79F7C501DF91CF9161
:100370001F910F91FF90EF90DF90CF90BF90AF90C3
:100380000895089590E080E0089560E088E00E947C
:10039000DE0060E08AE00E94DE0060E08BE00E9408
:1003A000DE0060E08CE00C94DE00FC010190002097
:1003B000E9F73197AF01481B590BBC0189E791E080
:1003C0000C949401CF93DF93EC0160E08E810E9446
:1003D000DE0061E08E810E94DE0060E08E810E947E
:1003E000DE008BE891E00197F1F7DF91CF9108955E
:1003F000CF92DF92EF92FF920F931F93CF93DF93F1
:100400006C017C0187E0E80EF11CD0E0C0E0062F13
:1004100010E0B8010C2E02C0759567950A94E2F7BA
:100420006170F70181917F010E94DE002196C43046
:10043000D10579F7C601DF91CF911F910F91FF9000
:10044000EF90DF90CF900C94E201CF92DF92EF9289
:10045000FF920F931F93CF93DF93EC01F62E642F3F
:100460008C810E94DE008D818F3F19F060E00E9438
:10047000DE000F2D10E08F8584FF25C06E0187E020
:10048000C80ED11CF12CE12CB8010E2C02C07595C0
:1004900067950A94E2F76170F60181916F010E94FD
:1004A000DE00FFEFEF1AFF0A88E0E816F10461F7BB
:1004B000CE01DF91CF911F910F91FF90EF90DF90D0
:1004C000CF900C94E201B80184E0759567958A9508
:1004D000E1F7CE010E94F8016F2DCE01DF91CF919F
:1004E0001F910F91FF90EF90DF90CF900C94F80147
:1004F00040E0682F89E791E00C942502CF93DF93C9
:10050000823029F4909188019860909388018093BB
:100510008C0110928D0180E480938E0180E18093A4
:100520008F0180E58093900161E080917D010E94C0
:100530000C0180917E018F3F19F061E00E940C0157
:1005400061E080917F010E940C01C9E7D1E09E012A
:10055000295731408091880184FD0BC084E090E0F0
:1005600021962817390744F461E08E810E940C011E
:10057000EECF88E090E0F4CF8BE39DE00197F1F7B8
:1005800060E080917D010E94DE0060E080917F014B
:100590000E94DE0080917E018F3F19F060E00E9492
:1005A000DE008091880184FD39C063E089E791E035
:1005B0000E94F801CBE4D6E4CE010197F1F763E0A5
:1005C00089E791E00E94F8012197F1F763E089E75C
:1005D00091E00E94F80183E592E00197F1F762E073
:1005E00089E791E00E94F8018091880180620E9471
:1005F000780284E0809389018CE00E94780281E097
:100600000E9478028BE39FE10197F1F782E08093EB
:100610008A0186E0DF91CF910C94780280620E947B
:1006200078028BE496E40197F1F78091880180626B
:100630000E94780283E592E00197F1F780918801AA
:1006400080620E947802D0CF90918C01891710F0BF
:100650008FEF890FE82FF0E0E758FE4F848980681C
:100660000C94780241E00E94250281E090E0089518
:100670001F920F920FB60F9211242F933F938F93D7
:100680009F93AF93BF938091710190917201A0915C
:100690007301B09174013091700123E0230F2D3765
:1006A00058F50196A11DB11D209370018093710131
:1006B00090937201A0937301B093740180917501BE
:1006C00090917601A0917701B09178010196A11DDA
:1006D000B11D8093750190937601A0937701B0933B
:1006E0007801BF91AF919F918F913F912F910F9082
:1006F0000FBE0F901F90189526E8230F0296A11D9C
:10070000B11DD2CFCF92DF92EF92FF920F931F9342
:10071000E82FF92F05C0015011092109310961F1B4
:10072000908196239417B9F305C00150110921094E
:10073000310911F1908196239413F7CFC12CD12C5C
:10074000E12CF12C0AC08FEFC81AD80AE80AF80A7F
:100750000C151D052E053F0579F080818623841731
:1007600091F36C2D7D2D8E2D9F2D1F910F91FF905C
:10077000EF90DF90CF90089560E070E080E090E02F
:100780001F910F91FF90EF90DF90CF900895CF933E
:10079000DF93CDB7DEB7A1970FB6F894DEBF0FBEDB
:1007A000CDBF789484B5826084BD84B5816084BDFA
:1007B00085B5826085BD85B5816085BD80916E00FF
:1007C000816080936E001092810080918100826030
:1007D000809381008091810081608093810080916D
:1007E00080008160809380008091B100846080935C
:1007F000B1008091B00081608093B00080917A0058
:10080000846080937A0080917A00826080937A007D
:1008100080917A00816080937A0080917A0080686C
:1008200080937A001092C10061E088E00E940C0180
:1008300061E08AE00E940C0161E08BE00E940C0103
:1008400061E08CE00E940C0161E083E00E940C01F9
:1008500061E089E00E940C0160E084E00E940C01EC
:1008600060E085E00E940C0161E086E00E940C01DE
:1008700060E087E00E940C0161E083E00E94DE00FE
:1008800061E089E00E94DE0082E00E947E028CE04E
:1008900091E00E94D50160ED77E080E090E00E9459
:1008A000620181E00E9478028BE39FE10197F1F7FA
:1008B00023E0222E312C33E2832E912C4AE0442E69
:1008C000512C612C712C50E0A52E50E0B52E60E02B
:1008D00086E00E94DE00C1010197F1F761E086E049
:1008E0000E94DE00C4010197F1F760E086E00E94FB
:1008F000DE00E1EAF0E06491EDE8F0E08491E82FB9
:10090000F0E0EE0FFF1FE458FF4F8591949100E255
:100910001EE420E030E0462F0E948203611571053D
:100920008105910509F475C06F5F7F4F8F4F9F4F11
:100930009F70611571058105910509F46AC00E94D7
:10094000DF0526E933E44BE05DE30E94430620E047
:1009500030E040E05FE30E9443060E94A7056B0180
:100960007C0180E00E94240389E191E00E94D5018E
:10097000F7FE56C041E06DE289E791E00E94250252
:1009800022273327A9012C193D094E095F0919A215
:100990008E010F5D1F4FCA01B901A30192010E9490
:1009A000D806605DF80162938F012115310541057C
:1009B000510589F70115110561F001900020E9F753
:1009C0003197AF01401B510BB80189E791E00E94BC
:1009D00094018FE191E00E94D501FAE0CF16D10495
:1009E000E104F1049CF50E94C50181E00E9424030A
:1009F00085E291E00E94D50164E670E080E090E03D
:100A00000E946201A114B10409F461CF0E940000A8
:100A10005ECF87EEC82E83E0D82EE12CF12CA1CF3B
:100A2000A701960119A28E010F5D1F4FCA01B901DE
:100A3000A30192010E94D806605DF80162938F01C4
:100A4000211531054105510589F7B4CF84E00E9495
:100A5000B5008C0185E00E94B50001151105B1F5C6
:100A60000097E1F461E088E00E94DE0060E08AE047
:100A70000E94DE0061E08BE00E94DE0060E08CE01E
:100A80000E94DE0081E00E94240384E391E00E9442
:100A9000D50162E370E080E090E0B2CF019789F584
:100AA00061E088E00E94DE0060E08AE00E94DE00F3
:100AB00060E08BE00E94DE0061E08CE00E94DE00DE
:100AC00081E00E94240383E491E0E1CF013011052D
:100AD000C1F4892BB1F460E088E00E94DE0061E09F
:100AE0008AE00E94DE0061E08BE00E94DE0060E0B0
:100AF0008CE00E94DE0081E00E94240382E591E008
:100B0000C6CF0E94C50181E00E94240381E691E0E6
:100B1000BECFE9E7F1E01382128284E091E0918395
:100B200080838DE084838FEF858382E086838EE0EF
:100B300087838FE0808780E1818781E182871386C8
:100B4000148615861686178681E00C947E020E9414
:100B5000AE056894B1110C943D0608950E942206DA
:100B600088F09F5798F0B92F9927B751B0F0E1F06E
:100B7000660F771F881F991F1AF0BA95C9F714C01E
:100B8000B13091F00E943C06B1E008950C943C060F
:100B9000672F782F8827B85F39F0B93FCCF3869557
:100BA00077956795B395D9F73EF4909580957095B4
:100BB00061957F4F8F4F9F4F0895E89409C097FB31
:100BC0003EF490958095709561957F4F8F4F9F4F24
:100BD0009923A9F0F92F96E9BB279395F695879568
:100BE00077956795B795F111F8CFFAF4BB0F11F42B
:100BF00060FF1BC06F5F7F4F8F4F9F4F16C08823D2
:100C000011F096E911C0772321F09EE8872F762F07
:100C100005C0662371F096E8862F70E060E02AF048
:100C20009A95660F771F881FDAF7880F9695879534
:100C300097F9089557FD9058440F551F59F05F3F9D
:100C400071F04795880F97FB991F61F09F3F79F0EE
:100C500087950895121613061406551FF2CF469570
:100C6000F1DF08C0161617061806991FF1CF8695F2
:100C70007105610508940895E894BB2766277727D6
:100C8000CB0197F908950E9456060C94C7060E945E
:100C9000B90638F00E94C00620F0952311F00C949C
:100CA000B0060C94B60611240C943D060E941A0658
:100CB00070F3959FC1F3950F50E0551F629FF001AF
:100CC000729FBB27F00DB11D639FAA27F00DB11DC8
:100CD000AA1F649F6627B00DA11D661F829F222751
:100CE000B00DA11D621F739FB00DA11D621F839FD8
:100CF000A00D611D221F749F3327A00D611D231FAE
:100D0000849F600D211D822F762F6A2F11249F57FB
:100D100050409AF0F1F088234AF0EE0FFF1FBB1FFE
:100D2000661F771F881F91505040A9F79E3F5105BD
:100D300080F00C94B0060C943D065F3FE4F3983EBF
:100D4000D4F3869577956795B795F795E7959F5F67
:100D5000C1F7FE2B880F911D9695879597F90895F9
:100D600097F99F6780E870E060E008959FEF80EC5E
:100D7000089500240A941616170618060906089501
:100D800000240A9412161306140605060895092E67
:100D90000394000C11F4882352F0BB0F40F4BF2BD6
:100DA00011F460FF04C06F5F7F4F8F4F9F4F089516
:100DB000A1E21A2EAA1BBB1BFD010DC0AA1FBB1F5F
:100DC000EE1FFF1FA217B307E407F50720F0A21BD1
:100DD000B30BE40BF50B661F771F881F991F1A943E
:100DE00069F760957095809590959B01AC01BD0168
:100DF000CF010895EE0FFF1F0590F491E02D0994A7
:100E0000F894FFCF0000000032039401C201C10139
:100E10004E617665656E20526F626F74004469732F
:100E2000743A00636D202020004F62737461636C1C
:100E3000652053746F702000466F72776172642072
:100E4000202020202020005475726E20526967688F
:100E50007420202020005475726E204C656674202A
:100E6000202020200053746F70202020202020207C
:040E7000202020001E
:107E0000112484B714BE81FFF0D085E080938100F7
:107E100082E08093C00088E18093C10086E0809377
:107E2000C20080E18093C4008EE0C9D0259A86E02C
:107E300020E33CEF91E0309385002093840096BBD3
:107E4000B09BFECF1D9AA8958150A9F7CC24DD24C4
:107E500088248394B5E0AB2EA1E19A2EF3E0BF2EE7
:107E6000A2D0813461F49FD0082FAFD0023811F036
:107E7000013811F484E001C083E08DD089C08234E0
:107E800011F484E103C0853419F485E0A6D080C0E4
:107E9000853579F488D0E82EFF2485D0082F10E0AE
:107EA000102F00270E291F29000F111F8ED06801E7
:107EB0006FC0863521F484E090D080E0DECF843638
:107EC00009F040C070D06FD0082F6DD080E0C81688
:107ED00080E7D80618F4F601B7BEE895C0E0D1E017
:107EE00062D089930C17E1F7F0E0CF16F0E7DF06D8
:107EF00018F0F601B7BEE89568D007B600FCFDCFD4
:107F0000A601A0E0B1E02C9130E011968C91119780
:107F100090E0982F8827822B932B1296FA010C0160
:107F200087BEE89511244E5F5F4FF1E0A038BF0790
:107F300051F7F601A7BEE89507B600FCFDCF97BE46
:107F4000E89526C08437B1F42ED02DD0F82E2BD052
:107F50003CD0F601EF2C8F010F5F1F4F84911BD097
:107F6000EA94F801C1F70894C11CD11CFA94CF0C13
:107F7000D11C0EC0853739F428D08EE10CD085E9AC
:107F80000AD08FE07ACF813511F488E018D01DD067
:107F900080E101D065CF982F8091C00085FFFCCF94
:107FA0009093C60008958091C00087FFFCCF809118
:107FB000C00084FD01C0A8958091C6000895E0E648
:107FC000F0E098E1908380830895EDDF803219F02E
:107FD00088E0F5DFFFCF84E1DECF1F93182FE3DFCA
:107FE0001150E9F7F2DF1F91089580E0E8DFEE27F6
:047FF000FF270994CA
:027FFE00040479
:00000001FF
